{
  "_format": "hh-sol-artifact-1",
  "contractName": "vendingMachine",
  "sourceName": "contracts/vendingMachine.sol",
  "abi": [
    {
      "inputs": [
        {
          "internalType": "address",
          "name": "_addressOracle",
          "type": "address"
        }
      ],
      "stateMutability": "nonpayable",
      "type": "constructor"
    },
    {
      "anonymous": false,
      "inputs": [
        {
          "indexed": true,
          "internalType": "address",
          "name": "oldOwner",
          "type": "address"
        },
        {
          "indexed": true,
          "internalType": "address",
          "name": "newOwner",
          "type": "address"
        }
      ],
      "name": "OwnerShipTransfer",
      "type": "event"
    },
    {
      "anonymous": false,
      "inputs": [
        {
          "indexed": true,
          "internalType": "address",
          "name": "buyer",
          "type": "address"
        },
        {
          "indexed": false,
          "internalType": "uint256",
          "name": "_value",
          "type": "uint256"
        }
      ],
      "name": "SodaPurchase",
      "type": "event"
    },
    {
      "inputs": [
        {
          "internalType": "uint256",
          "name": "_soda",
          "type": "uint256"
        }
      ],
      "name": "addStock",
      "outputs": [],
      "stateMutability": "nonpayable",
      "type": "function"
    },
    {
      "inputs": [],
      "name": "buySoda",
      "outputs": [],
      "stateMutability": "payable",
      "type": "function"
    },
    {
      "inputs": [],
      "name": "getBalance",
      "outputs": [
        {
          "internalType": "uint256",
          "name": "",
          "type": "uint256"
        }
      ],
      "stateMutability": "view",
      "type": "function"
    },
    {
      "inputs": [],
      "name": "owner",
      "outputs": [
        {
          "internalType": "address",
          "name": "",
          "type": "address"
        }
      ],
      "stateMutability": "view",
      "type": "function"
    },
    {
      "inputs": [],
      "name": "priceOracle",
      "outputs": [
        {
          "internalType": "contract IoraclePrice",
          "name": "",
          "type": "address"
        }
      ],
      "stateMutability": "view",
      "type": "function"
    },
    {
      "inputs": [
        {
          "internalType": "address",
          "name": "_newOwner",
          "type": "address"
        }
      ],
      "name": "transferOwnership",
      "outputs": [],
      "stateMutability": "nonpayable",
      "type": "function"
    },
    {
      "inputs": [],
      "name": "withdraw",
      "outputs": [],
      "stateMutability": "nonpayable",
      "type": "function"
    }
  ],
  "bytecode": "0x608060405234801561001057600080fd5b50604051610ce0380380610ce083398181016040528101906100329190610124565b336000806101000a81548173ffffffffffffffffffffffffffffffffffffffff021916908373ffffffffffffffffffffffffffffffffffffffff160217905550606460018190555080600260006101000a81548173ffffffffffffffffffffffffffffffffffffffff021916908373ffffffffffffffffffffffffffffffffffffffff16021790555050610151565b600080fd5b600073ffffffffffffffffffffffffffffffffffffffff82169050919050565b60006100f1826100c6565b9050919050565b610101816100e6565b811461010c57600080fd5b50565b60008151905061011e816100f8565b92915050565b60006020828403121561013a576101396100c1565b5b60006101488482850161010f565b91505092915050565b610b80806101606000396000f3fe6080604052600436106100705760003560e01c80633d6506261161004e5780633d650626146100e25780633db8cbcc1461010b5780638da5cb5b14610115578063f2fde38b1461014057610070565b806312065fe0146100755780632630c12f146100a05780633ccfd60b146100cb575b600080fd5b34801561008157600080fd5b5061008a610169565b604051610097919061068c565b60405180910390f35b3480156100ac57600080fd5b506100b5610171565b6040516100c29190610726565b60405180910390f35b3480156100d757600080fd5b506100e0610197565b005b3480156100ee57600080fd5b5061010960048036038101906101049190610772565b61026e565b005b610113610313565b005b34801561012157600080fd5b5061012a610495565b60405161013791906107c0565b60405180910390f35b34801561014c57600080fd5b5061016760048036038101906101629190610807565b6104b9565b005b600047905090565b600260009054906101000a900473ffffffffffffffffffffffffffffffffffffffff1681565b60008054906101000a900473ffffffffffffffffffffffffffffffffffffffff1673ffffffffffffffffffffffffffffffffffffffff163373ffffffffffffffffffffffffffffffffffffffff1614610225576040517f08c379a000000000000000000000000000000000000000000000000000000000815260040161021c90610891565b60405180910390fd5b3373ffffffffffffffffffffffffffffffffffffffff166108fc479081150290604051600060405180830381858888f1935050505015801561026b573d6000803e3d6000fd5b50565b60008054906101000a900473ffffffffffffffffffffffffffffffffffffffff1673ffffffffffffffffffffffffffffffffffffffff163373ffffffffffffffffffffffffffffffffffffffff16146102fc576040517f08c379a00000000000000000000000000000000000000000000000000000000081526004016102f390610891565b60405180910390fd5b8060015461030a91906108e0565b60018190555050565b6000600260009054906101000a900473ffffffffffffffffffffffffffffffffffffffff1673ffffffffffffffffffffffffffffffffffffffff166398d5fdca6040518163ffffffff1660e01b8152600401602060405180830381865afa158015610382573d6000803e3d6000fd5b505050506040513d601f19601f820116820180604052508101906103a69190610929565b90508034146103ea576040517f08c379a00000000000000000000000000000000000000000000000000000000081526004016103e1906109a2565b60405180910390fd5b60006001541161042f576040517f08c379a000000000000000000000000000000000000000000000000000000000815260040161042690610a0e565b60405180910390fd5b6001805461043d9190610a2e565b6001819055503373ffffffffffffffffffffffffffffffffffffffff167f646a52ca25b2a596eee7bf2f753e08716f6520042146dc4cc34c0877e0701e1e600160405161048a9190610a9d565b60405180910390a250565b60008054906101000a900473ffffffffffffffffffffffffffffffffffffffff1681565b60008054906101000a900473ffffffffffffffffffffffffffffffffffffffff1673ffffffffffffffffffffffffffffffffffffffff163373ffffffffffffffffffffffffffffffffffffffff1614610547576040517f08c379a000000000000000000000000000000000000000000000000000000000815260040161053e90610891565b60405180910390fd5b600073ffffffffffffffffffffffffffffffffffffffff168173ffffffffffffffffffffffffffffffffffffffff16036105b6576040517f08c379a00000000000000000000000000000000000000000000000000000000081526004016105ad90610b2a565b60405180910390fd5b8073ffffffffffffffffffffffffffffffffffffffff1660008054906101000a900473ffffffffffffffffffffffffffffffffffffffff1673ffffffffffffffffffffffffffffffffffffffff167f39aa7b32e39346e4d63b7af2df2424277168303b5e5a6e01b6b1a014d501a7ab60405160405180910390a3806000806101000a81548173ffffffffffffffffffffffffffffffffffffffff021916908373ffffffffffffffffffffffffffffffffffffffff16021790555050565b6000819050919050565b61068681610673565b82525050565b60006020820190506106a1600083018461067d565b92915050565b600073ffffffffffffffffffffffffffffffffffffffff82169050919050565b6000819050919050565b60006106ec6106e76106e2846106a7565b6106c7565b6106a7565b9050919050565b60006106fe826106d1565b9050919050565b6000610710826106f3565b9050919050565b61072081610705565b82525050565b600060208201905061073b6000830184610717565b92915050565b600080fd5b61074f81610673565b811461075a57600080fd5b50565b60008135905061076c81610746565b92915050565b60006020828403121561078857610787610741565b5b60006107968482850161075d565b91505092915050565b60006107aa826106a7565b9050919050565b6107ba8161079f565b82525050565b60006020820190506107d560008301846107b1565b92915050565b6107e48161079f565b81146107ef57600080fd5b50565b600081359050610801816107db565b92915050565b60006020828403121561081d5761081c610741565b5b600061082b848285016107f2565b91505092915050565b600082825260208201905092915050565b7f596f7520617265206e6f742061204f776e657200000000000000000000000000600082015250565b600061087b601383610834565b915061088682610845565b602082019050919050565b600060208201905081810360008301526108aa8161086e565b9050919050565b7f4e487b7100000000000000000000000000000000000000000000000000000000600052601160045260246000fd5b60006108eb82610673565b91506108f683610673565b925082820190508082111561090e5761090d6108b1565b5b92915050565b60008151905061092381610746565b92915050565b60006020828403121561093f5761093e610741565b5b600061094d84828501610914565b91505092915050565b7f596f75206d7573742070617920302e3031206574686572000000000000000000600082015250565b600061098c601783610834565b915061099782610956565b602082019050919050565b600060208201905081810360008301526109bb8161097f565b9050919050565b7f536f7272792c206f7574206f662073746f636b21000000000000000000000000600082015250565b60006109f8601483610834565b9150610a03826109c2565b602082019050919050565b60006020820190508181036000830152610a27816109eb565b9050919050565b6000610a3982610673565b9150610a4483610673565b9250828203905081811115610a5c57610a5b6108b1565b5b92915050565b6000819050919050565b6000610a87610a82610a7d84610a62565b6106c7565b610673565b9050919050565b610a9781610a6c565b82525050565b6000602082019050610ab26000830184610a8e565b92915050565b7f4e6577204f776e657220616464726573732073686f756c64206e6f742062652060008201527f7a65726f20616464726573730000000000000000000000000000000000000000602082015250565b6000610b14602c83610834565b9150610b1f82610ab8565b604082019050919050565b60006020820190508181036000830152610b4381610b07565b905091905056fea2646970667358221220c1fda1861019d317e619b5b12b7762731db1f35d10e9789ccc42d5041c61190364736f6c634300081c0033",
  "linkReferences": {},
  "deployedLinkReferences": {}
}