{
  "_format": "hh-sol-artifact-1",
  "contractName": "sodaVendor",
  "sourceName": "contracts/sodaVendor.sol",
  "abi": [
    {
      "inputs": [],
      "stateMutability": "nonpayable",
      "type": "constructor"
    },
    {
      "anonymous": false,
      "inputs": [
        {
          "indexed": true,
          "internalType": "address",
          "name": "oldOwner",
          "type": "address"
        },
        {
          "indexed": true,
          "internalType": "address",
          "name": "newOwner",
          "type": "address"
        }
      ],
      "name": "OwnerShipTransfer",
      "type": "event"
    },
    {
      "inputs": [],
      "name": "getPrice",
      "outputs": [
        {
          "internalType": "uint256",
          "name": "",
          "type": "uint256"
        }
      ],
      "stateMutability": "view",
      "type": "function"
    },
    {
      "inputs": [],
      "name": "owner",
      "outputs": [
        {
          "internalType": "address",
          "name": "",
          "type": "address"
        }
      ],
      "stateMutability": "view",
      "type": "function"
    },
    {
      "inputs": [],
      "name": "price",
      "outputs": [
        {
          "internalType": "uint256",
          "name": "",
          "type": "uint256"
        }
      ],
      "stateMutability": "view",
      "type": "function"
    },
    {
      "inputs": [
        {
          "internalType": "uint256",
          "name": "_price",
          "type": "uint256"
        }
      ],
      "name": "setPrice",
      "outputs": [],
      "stateMutability": "nonpayable",
      "type": "function"
    },
    {
      "inputs": [
        {
          "internalType": "address",
          "name": "_newOwner",
          "type": "address"
        }
      ],
      "name": "transferOwnership",
      "outputs": [],
      "stateMutability": "nonpayable",
      "type": "function"
    }
  ],
  "bytecode": "0x6080604052348015600f57600080fd5b50336000806101000a81548173ffffffffffffffffffffffffffffffffffffffff021916908373ffffffffffffffffffffffffffffffffffffffff160217905550670de0b6b3a76400006001819055506106008061006e6000396000f3fe608060405234801561001057600080fd5b50600436106100575760003560e01c80638da5cb5b1461005c57806391b7f5ed1461007a57806398d5fdca14610096578063a035b1fe146100b4578063f2fde38b146100d2575b600080fd5b6100646100ee565b60405161007191906103b5565b60405180910390f35b610094600480360381019061008f919061040b565b610112565b005b61009e6101aa565b6040516100ab9190610447565b60405180910390f35b6100bc6101b4565b6040516100c99190610447565b60405180910390f35b6100ec60048036038101906100e7919061048e565b6101ba565b005b60008054906101000a900473ffffffffffffffffffffffffffffffffffffffff1681565b60008054906101000a900473ffffffffffffffffffffffffffffffffffffffff1673ffffffffffffffffffffffffffffffffffffffff163373ffffffffffffffffffffffffffffffffffffffff16146101a0576040517f08c379a000000000000000000000000000000000000000000000000000000000815260040161019790610518565b60405180910390fd5b8060018190555050565b6000600154905090565b60015481565b60008054906101000a900473ffffffffffffffffffffffffffffffffffffffff1673ffffffffffffffffffffffffffffffffffffffff163373ffffffffffffffffffffffffffffffffffffffff1614610248576040517f08c379a000000000000000000000000000000000000000000000000000000000815260040161023f90610518565b60405180910390fd5b600073ffffffffffffffffffffffffffffffffffffffff168173ffffffffffffffffffffffffffffffffffffffff16036102b7576040517f08c379a00000000000000000000000000000000000000000000000000000000081526004016102ae906105aa565b60405180910390fd5b8073ffffffffffffffffffffffffffffffffffffffff1660008054906101000a900473ffffffffffffffffffffffffffffffffffffffff1673ffffffffffffffffffffffffffffffffffffffff167f39aa7b32e39346e4d63b7af2df2424277168303b5e5a6e01b6b1a014d501a7ab60405160405180910390a3806000806101000a81548173ffffffffffffffffffffffffffffffffffffffff021916908373ffffffffffffffffffffffffffffffffffffffff16021790555050565b600073ffffffffffffffffffffffffffffffffffffffff82169050919050565b600061039f82610374565b9050919050565b6103af81610394565b82525050565b60006020820190506103ca60008301846103a6565b92915050565b600080fd5b6000819050919050565b6103e8816103d5565b81146103f357600080fd5b50565b600081359050610405816103df565b92915050565b600060208284031215610421576104206103d0565b5b600061042f848285016103f6565b91505092915050565b610441816103d5565b82525050565b600060208201905061045c6000830184610438565b92915050565b61046b81610394565b811461047657600080fd5b50565b60008135905061048881610462565b92915050565b6000602082840312156104a4576104a36103d0565b5b60006104b284828501610479565b91505092915050565b600082825260208201905092915050565b7f596f7520617265206e6f742061204f776e657200000000000000000000000000600082015250565b60006105026013836104bb565b915061050d826104cc565b602082019050919050565b60006020820190508181036000830152610531816104f5565b9050919050565b7f4e6577204f776e657220616464726573732073686f756c64206e6f742062652060008201527f7a65726f20616464726573730000000000000000000000000000000000000000602082015250565b6000610594602c836104bb565b915061059f82610538565b604082019050919050565b600060208201905081810360008301526105c381610587565b905091905056fea264697066735822122094ddeb6a1c1369d2958bab316ff429267e1c37b1f59ba80468558145362c824764736f6c634300081c0033",
  "linkReferences": {},
  "deployedLinkReferences": {}
}